:020000020000FC
:100000001DC0FFFFFFFFFFFFFFFFFFFFFFFFFFFF21
:10001000FFFFFFFFFFFFFFFFFFFFFFFFFFFFFFFFF0
:10002000FFFFFFFFFFFFFFFFFFFFFFFFFFFFFFFFE0
:10003000FFFFFFFFFFFFFFFFFFFFFFFF07C02006DF
:10004000F8940FE50DBF02E00EBF13C0F894F0E086
:10005000EEE3759165915EE040E40591601B7040B0
:100060004A95D9F75A95C1F76030F1F77030E1F74A
:10007000E7CFEE27FF2703E007BFE895E0ECFFE1BD
:1000800051E703E007BFE895E054F0405A95C9F7FF
:1000900000EC13E0480100EC1FE158015AE0C0E613
:1000A000D0E06E0140E4F401059109934A95E1F72F
:1000B000E058F0404F01E60140E4F5010990199045
:1000C00001E007BFE89532964250C1F7E054F04096
:1000D00005E007BFE89507B700FDFDCFE60140E466
:1000E00005911991011709F0FFCF4A95C9F7E0581A
:1000F000F0405F015A9599F606E91FE00F931F93B0
:100100000895FFFFFFFFFFFFFFFFFFFFFFFFFFFF60
:10011000FFFFFFFFFFFFFFFFFFFFFFFFFFFFFFFFEF
:10012000FFFFFFFFFFFFFFFFFFFFFFFFFFFFFFFFDF
:10013000FFFFFFFFFFFFFFFFFFFFFFFFFFFFFFFFCF
:10014000FFFFFFFFFFFFFFFFFFFFFFFFFFFFFFFFBF
:10015000FFFFFFFFFFFFFFFFFFFFFFFFFFFFFFFFAF
:10016000FFFFFFFFFFFFFFFFFFFFFFFFFFFFFFFF9F
:10017000FFFFFFFFFFFFFFFFFFFFFFFFFFFFFFFF8F
:10018000F89434B733FD1CC10FE50DBF02E00EBF7C
:10019000D19AD098D89AD99AC89905C031FD10C182
:1001A0001197D0F70DC1D7D03296B591A0E80A9536
:1001B000F1F7C89B03C01197D0F702C1AA27BB274C
:1001C00006E0C899FECF1196C89BFDCF0A95C9F7E6
:1001D0003D013FEF259123232F3F71F0BFD0003029
:1001E00021F00217B1F33327F5CF7AD026F078D07B
:1001F00016F0A3D005C0E4C0E0EBFFE140E10ED073
:10020000EE27FF27B7D0AAD030D0FACF61D00EF4B6
:100210000895A1D068946CD09ED040E40591ABD0F5
:100220004A95E1F708955ED02EF0F7DFE038D9F770
:10023000FD31C9F708957AD04BD00EF4089587D0D8
:1002400008811981005E1F4F28010FEB1EEC088307
:1002500019834FD03DD02EF04CD0FD31D9F7EF3778
:10026000C9F72ED04882598243C00336A9F203341D
:1002700069F20636C1F20634F1F2053619F005349A
:1002800069F09EC02FD096F040E4EEBBFFBBE09A31
:100290000DB371D031964A95C1F7F4CF19D036F02D
:1002A00056D0099104D04A95E1F7F8CF08950DBBD7
:1002B000EEBBFFBBE29AE19AE199FECF3196089539
:1002C0004AD045D0059109934A95E1F744D03FC003
:1002D00007D02EF03CD042D009934A95E1F708951B
:1002E0000FE349D03BD0E894013209F068940895B7
:1002F0002AD02DD00990199001E007BFE8953296D9
:100300004250C1F7E054F04005E007BFE89507B759
:1003100000FDFDCF1CD005911991011721F01EF0B1
:1003200029D004D0FFCF4A95B1F70895E0E8FDE168
:10033000E054F04008D0E1F70895F8DF0FEFB7DFA1
:10034000F430E9F708D003E007BFE8950895C0E668
:10035000D0E040E40895E0ECFFE10895D89AC89910
:10036000FECF18E01DD017D00695C89900681A95E1
:10037000D1F711C001E20FD00CD018E000FD05D07C
:1003800000FF07D006951A95C9F7D19AD098D99A47
:1003900002C0D19AD998D30158970000E8F7089580
:1003A000D301B695A795F8CFFFFFFFFFFFFFFFFF33
:1003B0007473621A1FF01E930C20C00EFF01000020
:00000001FF
