:020000020000FC
:107E0000F89434B733FD17C00FEF0DBF08E00EBF75
:107E1000519A5098589A599A489903C01197E0F787
:107E20000AC0BCD03296B591A0E80A95F1F7489BFC
:107E300005C01197D0F7A7D00C940000AA27BB2744
:107E400006E04899FECF1196489BFDCF0A95C9F7E9
:107E50003D013FEF259123232F3F71F0A2D0003049
:107E600021F00217B1F33327F5CF76D026F074D086
:107E700016F080D005C0DFCFEEEEFFE740E10ED078
:107E8000EE27FF279AD08DD034D0FACF5DD00EF4F4
:107E9000089584D075D019D081D040E874D0059170
:107EA0008DD04A95D9F7089559D02EF0F6DFE038F5
:107EB000D9F7FD37C9F7089557D046D02EF005D031
:107EC000FD37D9F7EF37C9F7089564D009901990B5
:107ED00001E007BFE89532964250C1F7E058F04004
:107EE00005E007BFE89507B700FDFDCFE058FF4F5D
:107EF0000895033689F2033449F20636A9F20634AE
:107F0000D9F2053659F0053409F095CF1DD096F019
:107F100041D0099110D04A95E1F7F8CF1FD056F023
:107F200040E8E1BDF2BDF89A00B548D031964A95D7
:107F3000C1F7F4CF089500BDE1BDF2BDFA9AF99AF8
:107F4000F999FECF3196089507D02EF023D029D08D
:107F500009934A95E1F708950FE330D022D0E894D1
:107F6000013209F06894089519D0E058F04008D023
:107F7000E1F70895F9DF0FEFDEDFF630E9F70ED015
:107F800003E007BFE89507B700FDFDCF01E107BF9C
:107F9000E8950895C0E0D1E040E80895E0E8FDE705
:107FA0000895589A4899FECF18E01DD017D006952D
:107FB000489900681A95D1F711C001E20FD00CD092
:107FC00018E000FD05D000FF07D006951A95C9F707
:107FD000519A5098599A02C0519A5998D30158977A
:107FE0000000E8F70895D301B695A795F8CF54534C
:107FF000421A1FF01E950F40C03EFF03AAAAFFFFC2
:00000001FF
